:08000000803102288731FB2F3B
:100EB200410113145C2F13185F2F602F5C2F612FD9
:100EC2000D08F7000C08F6007708803AF00083302E
:100ED2007002031D6E2FE83076020318712F722FF5
:100EE200752F40010D12782F40010D16782F080042
:100EF2007E3041019400FF30400191009201930144
:100F02008D018E014101931780309500882FF201E7
:100F1200F3017308803AF10080307102031D932FB0
:100F220064307202031C962F972F992FC12FC12F65
:100F320087315927873140018E16E4300032003262
:100F4200890B9F2F0032003240018E121330F100C4
:100F5200B230890BAA2FF10BAA2F00320130F2070F
:100F62000030F33D7308803AF10080307102031DB6
:100F7200BC2F64307202031CBF2FC02F992FC12FC8
:100F8200F401F5017508803AF10080307102031D09
:100F9200CC2F64307402031CCF2FD02FD22F882F76
:100FA200882F87315927873140018E16A0300032B1
:100FB200890BD82F40018E121430F100BC30890BFE
:100FC200E02FF10BE02F00320130F4070030F53D45
:100FD2007508803AF10080307102031DF22F6430EF
:100FE2007402031CF52FF62FD22F882F882F882FFB
:0E0FF20080310228F601F70140018731792F86
:020000040001F9
:0A000E00FF3FFF3FFF3FFF3FFF3FB2
:00000001FF
